:10000000d4ff0120f9260000f5260000f5260000a7
:10001000f5260000f5260000f5260000f526000074
:10002000f5260000f5260000f5260000f526000064
:10003000f5260000f5260000f526000099090000cd
:10004000f5260000f5260000f5260000f526000044
:10005000f526000015390000f5260000f526000001
:10006000f5260000f5260000f5260000f526000024
:10007000f5260000f5260000f5260000f526000014
:10008000f5260000f5260000f5260000f526000004
:10009000f5260000f5260000f5260000f5260000f4
:1000a000f5260000f5260000f5260000f5260000e4
:1000b000f5260000f5260000f5260000f5260000d4
:1000c000f5260000f5260000f5260000f5260000c4
:1000d000f5260000f5260000f526000010b5054cb9
:1000e000237833b9044b13b10448aff300800123e4
:1000f000237010bda4000020000000007452000016
:10010000084b10b51bb108480849aff300800848f8
:10011000036803b910bd074b002bfbd0bde81040ae
:10012000184700bf0000000074520000a800002023
:10013000a400002000000000154b002b08bf134b4b
:100140009d46a3f5803a00218b460f461348144a7a
:10015000121a04f0aefd0f4b002b00d098470e4b47
:10016000002b00d098470020002104000d000d480e
:10017000002802d00c48aff3008004f059fd2000a5
:10018000290000f0b1f804f049fc00bf00000800ad
:10019000d4ff01200000000000000000a4000020a7
:1001a000640700200000000000000000bff34f8f34
:1001b0000449054bca6802f4e0621343cb60bff305
:1001c0004f8ffee700ed00e00400fa05034b00222c
:1001d000012159609a60da63704700bf00000c404b
:1001e00038b52b4ca36c013b092b1fd861684b1e03
:1001f00003331dd90024264d29694b1e03333fd9f3
:10020000234de9694b1e033332d9214da96a4b1e98
:10021000033325d91e4d696b4b1e033318d91c4d72
:10022000296c4b1e03330bd9204638bd012038bd45
:10023000206801f0d1f9a468041b18bf0124dae793
:10024000e86b01f0c9f96b6c8342edd0601c38bdde
:10025000286b01f0c1f9ab6b834218bf0134dee7b4
:10026000686a01f0b9f9eb6a834218bf0134d1e73b
:10027000a86901f0b1f92b6a834218bf0134c4e7c1
:10028000e86801f0a9f96b69834218bf0134b7e748
:10029000b4ff0f0080b483b000af7860396080f3a2
:1002a000088880f309888f46fee700bf80b584b0d8
:1002b00000affff78bff0a4b1b68fb60094afb6826
:1002c0009360fb681b68bb60fb685b687b60ba6817
:1002d0007b6810461946fff7ddff1037bd4680bd2d
:1002e000c000002000ed00e02de9f04e92b001f0da
:1002f0001fffb04b04461d6809a801f093ffb5f13c
:10030000805f03d39df82430032b26d004211120d5
:1003100001f038fc02f0fef8a748012101f0bafb19
:10032000a648012101f0b6fb01f0dcf8650602d514
:10033000b8f57f4f19d0a24b4ff400421a60fff777
:100340004fff0446002840f0b9804ff00008fff747
:10035000adff204612b0bde8f08e9a4a136823f034
:10036000500343f010031360d0e7974c01f0c2fe36
:10037000616b964d206b4b1e03334ff000082860d5
:1003800040f2568203af3c46914d01260fcd0fc47b
:1003900095e8030084e803003846002400f032fcae
:1003a00025468c4bda6cb2f1905fc0f03e825b6bfd
:1003b00001221b0e0a33dbb202fa03f3854a80489e
:1003c000926c002192b24ff4004782600361416059
:1003d000076001f01df87a4b1869b7fbf0f7df6092
:1003e00004f04cfc764b5861002d40f01182002e39
:1003f00040f00a82002c00f09f8102f09bf9052852
:10040000fbd1754e02233360744801f06bfa80080b
:10041000431eb3f1807f09d2714a724ce02500205f
:100420000721536084f823509060116034684ff4c2
:1004300091620123022c01920293674d00f0ec813e
:10044000032c00f0db819c4204d101a8082100f0bc
:1004500087fb2c68644d2f464ff0000908e0032c01
:1004600000f00081012c00f0fa8004f00ffc3468e9
:10047000082004f003fc28600028f8d0022ceed1fc
:1004800000f03cfd2868037803f07802082a40f069
:10049000e1801b07044649d5a378002b46d1534a77
:1004a00094f803a01360524b83f800a0baf1030f35
:1004b00000f2b881dfe80af0a25f430801f01afefb
:1004c0004ff47f48fff772fe4a4b1b68002b40f049
:1004d000dc803b4b586904f0d9fb394a0023536157
:1004e000fff77efe002840f0cb80834694f803a0ff
:1004f000062004f0c3fb8146c0b10823022203702a
:10050000002380f803a0427083703368a0f804b021
:10051000934200f0ae80032b00f0a780012b02d1a4
:10052000062100f01dfb484604f0b0fb606808b1ee
:1005300004f0acfb204604f0a9fb34688ce761684a
:100540002c4b1f4a1b6891f80090126909eb0300bd
:100550009042dff86cb0c0f0f1802749dbf80c0066
:100560000b68013383420b6000f21081214b0020a5
:1005700018608346bce7124b11491b69002b7cd0e5
:1005800062681268b2f5004fc0f0f380b2fbf3f27c
:10059000886803fb02feb0fbf3f3ca60c1f804e015
:1005a0009a422cbf4ff4427b4ff0000b94f803a00b
:1005b0009ee700bffc81e00f00d2040000030200b0
:1005c000c0000020c0800c40b4ff0f00d800002005
:1005d000b0500000b081e00fe400002050000200a5
:1005e00010e000e000ed00e0e0000020ec00002062
:1005f000dc000020e8000020f0000020b64b1b6863
:10060000002b69d163681978012940f0868032682f
:10061000dff8d0e20023029188200421022acef8dc
:1006200000308df806308df807308df804008df815
:10063000051000f09980032a00f09180012a04d16e
:100640000deb0100082100f08bfa94f803a04ff0a5
:10065000000b4de704f01afbc7f8009007e700f025
:100660001dfa0fe700f04afe0ce7062100f092feab
:1006700059e7062100f080fc55e74ff4427b37e74d
:1006800094f803a04ff4427b32e7944a934bd0682e
:100690001b6900fb03f000f005ff904a8e4b506988
:1006a0001b6812691844d21aff2104f002fb8b4a1e
:1006b0008a4bd0681b6900211a4600fb03f0874b68
:1006c0005b6900f0bbfe854b8449db680022013387
:1006d000cb60814b1a60fce6804aff2150691269a9
:1006e0001844d21a04f0e5fa7c4a7c4bd0681b69a6
:1006f00000211a4600fb03f0784b5b6900f09efe78
:10070000764b7649db6800220133cb60724b1a606e
:100710006368197801293ff47aaf704a506918b1bb
:1007200004f0b4fa636813b1184604f0affa204637
:1007300004f0acfa4ff00008fff738fddbf81400c6
:100740004a461844013104f0a9fa634b624a1b6817
:1007500094f803a04b4413604ff0000bc8e601a8c7
:10076000082100f017fe70e701a8082100f004fc42
:100770006be7002a56d14ff40040b0fbf3f34a6018
:10078000cb600860934694f803a0b1e602fb00f04a
:1007900000f088fe504bdbf810201b68dbf81400db
:1007a0006168c3eb020a18445246013104f076fa3c
:1007b000dbf81030dbf80c001a4600fb03f00021d8
:1007c000dbf8143000f03afedbf80c30caeb090914
:1007d0000133cbf80c30b9f1000f07d13e4b94f840
:1007e00003a0c3f800904ff0000b81e66168dbf8ce
:1007f000140051444a4604f051faefe701a80821d9
:1008000000f0c8fd2c6825e6354e01233360fbe57a
:10081000334e03233360f7e501a8082100f0acfb59
:100820002c6817e64ff0000b62e64ff48053c5e5e5
:1008300000f0d2fea36b98427ff4a4ad2b681a7926
:1008400002f00302032a5ad01a7c02f00302032aa0
:1008500032d0236b93f820202b60910705d002f053
:10086000040101f0ff0000295fd093f82c209407c9
:100870003ad0500738d40121099193f82f1002f093
:1008800010000a9193f82d4002f020010b9493f888
:100890002e4022f07f020c940d900e910f9293f84f
:1008a00030200225109293f83130119309a80024ca
:1008b00000f084fb264674e5197d987c01220392a2
:1008c0000491d9685a7c0790db7c059108930692c5
:1008d000022603af60e500bfe8000020c000002052
:1008e000e4000020f00000201a8b9c7e224037d0cc
:1008f0002748002501f026ff2e46012451e51a68fd
:10090000197a059204915a79002106929a790391f5
:100910000792da790892b3f8743303f48173b3f56c
:10092000817f2cd0012603af36e5099093f8231080
:1009300002f010000a9193f8214002f020010b947c
:1009400093f8224022f07f020c940d900e910f92aa
:1009500093f824200125109293f825301193a5e7f0
:1009600014460c4e03ad0fce0fc596e8030085e884
:10097000030003a8254600f045f9012611e50420ef
:1009800002460221012301f005fd012603af03e524
:1009900048510000b0500000f8b51d4c23680f2be3
:1009a00007d023681a4a0f2b2dd813680133136020
:1009b000f8bd184b06201e7804f060f905460028a3
:1009c000efd0082202270021134b8170c6700270fd
:1009d00047701b680321bb42027141710fd08b42eb
:1009e00009d0012b03d0284604f050f9d9e706219d
:1009f00000f0b6f8f7e7062100f0ccfcf3e706219b
:100a000000f0bafaefe74ff00008fff7cffb00bfa6
:100a1000ec000020dc000020e40000204ff06042e9
:100a2000d2f8803ed90709d5d2f8003edb0705d5bc
:100a300013684ff06041002bfad00870704700bf78
:100a400000207047034b05290cbf012200221a70b9
:100a5000704700bff400002008b5037803f07f035f
:100a6000212b06d14378212b06d0222b0ad0202b14
:100a70000ad06ff0020008bd002003460649072295
:100a800002f0b0f8002008bd00200346024907220a
:100a900001f0b2ff002008bd04000020f0b583b0d3
:100aa000294c2a4a23782a4d03ebc3035901636872
:100ab0000a4469691a440646920071b11368002b12
:100ac000fcd12449244a0b78486803ebc3039b00fc
:100ad00001211a4401fa00f3536031461f4f341dbf
:100ae0003a680020009013691b06fcd5d36901f811
:100af000013ba142f6d13178737801f0070103eb95
:100b00000124204604f0baf870605cb13a6801191b
:100b10000024019413691b06fcd5d36900f8013b3e
:100b20008842f6d16b6963b10a4901220b784968a2
:100b300003ebc3039b0003f1804303f5c0438a40ea
:100b40001a6103b0f0bd00bff8000020e000831080
:100b50000801002000010020106000402400002057
:100b6000f0b5224b5d69cdb1214a224f1378d2f8fe
:100b700004e003ebc303204c9a0001263b781444a5
:100b800006fa0ef2626003ebc3041c4a7b68640140
:100b900022441a4492001368002bfcd101b3184b75
:100ba00000241a6813695e06fcd5b8b110f8013b41
:100bb000536301348c42f5d113695b06fcd565b1f2
:100bc0000b4901220b78496803ebc3039b0003f137
:100bd000804303f5c0438a401a61f0bd5063e8e7e3
:100be000074b1a6813695b06e6d5e8e708010020a1
:100bf00000010020f800002010600040e000831099
:100c0000240000202de9f04f83b0834601461822ce
:100c1000a64804f043f8dbf804305a1e042a96bfb5
:100c2000a349002551f82250dbf80020002a5cd1ae
:100c3000dff89c829f4ac8f80020002b74d19e4e9a
:100c4000042213460d213270174614460a220192df
:100c500071604ff00b0a0c22dff87892974801215f
:100c600089f80030c9f8042000f014ff38460199d3
:100c70000422012301f08efb00232046514601226d
:100c800001f088fbdbf81430002b40f09f80dbf88c
:100c90000830b3f5165f80f0818089494ff4165310
:100ca0008b60dbf80c20012a6dd0022a6bd14ff447
:100cb00040520a82dbf81020012a6bd001d3022aad
:100cc00074d00022ca81b3f5e13f84bf20230b73a7
:100cd000d8f800007a4901f0affbd8f8003045f0b1
:100ce00003055d6503b0bde8f08f012afad1dff896
:100cf000e0817449c8f80010002b76d0012b00f079
:100d0000c680022b00f09980ff242746a6466a4e33
:100d10004ff0ff3a3470c6f804a0cdf804a0023baf
:100d200018bf4ff0ff336ae0012b43d0022b72d083
:100d3000032b00f09c80042b00f08d80052b77d0d6
:100d4000ff2427464ff0ff3a052b14bf4ff0ff3228
:100d50000022019200f08580574eff214ff0ff32b4
:100d6000012b3170726000f09d80022b5ed0032b4e
:100d700000f08a80043b022b35bf0123ff230d22a4
:100d80004ff0ff3268e74ff480520a82dbf8102000
:100d9000012a93d14ff44072ca8194e74a4a4849e4
:100da000934286bf13468a608b607ae74ff40072e5
:100db000ca8188e7404e042407220192347074608f
:100dc000274623464ff0060a052245e7307871682a
:100dd0000422012301f0defa0122134699f80000f3
:100de000d9f8041001f0d6fa51e702279646924648
:100df0003c46314e08210193327071600723dff8c1
:100e0000d4903248012189f800e0c9f8043000f09c
:100e100041fe38462be71c46274e082373602746c1
:100e200023460b2234704ff00a0a0192092213e77d
:100e3000022427464ff0010a86e71f4e01224ff099
:100e4000050e03247260072286f800e027464ff063
:100e5000060a019263e70124274607224ff0080a99
:100e60000192154e01210e223170726082e7124efe
:100e70000e220223042472600d2201923370274651
:100e80004ff00c0a0f22e7e602230f22e4e60a4e97
:100e900003249a4600230193347074602746a646c3
:100ea0000223ace704230522d6e600bf0801002098
:100eb000dc51000000c000400001002000020400de
:100ec0000c00002000c40040808d5b000012040074
:100ed00024000020f800002030b4054d054c064bde
:100ee00001222870216000201a6030bc704700bfca
:100ef00020010020280100202401002070b582b0cc
:100f000000251a4c2946082201950646256003f063
:100f1000d0fe17494ff48072164b0120256001f076
:100f20006bfd05e0019b0133b3f5fa7f019302d815
:100f30002368002bf6d018b90d4c2378082b01d06c
:100f400002b070bd30462146042203f0a7fe65784a
:100f5000002df5d0032d98bf0425284603f08efe02
:100f60002a467060211d03f099fee9e72401002064
:100f70002c010020d90e000030b583b00d4c0a467c
:100f8000002501460c4b81200195256001f02afec9
:100f900023682bb9019b013301932368002bf9d0ff
:100fa00018b105e0019b013301932368002bf9d0b0
:100fb00003b030bd24010020d90e00002de9f04f10
:100fc00085b04368052b07d8dfe813f00a009600c8
:100fd000d500d900dd00e100002005b0bde8f08fac
:100fe0000f23009306680446002e00f08d80012e2a
:100ff000f2d1b74bb74d3146b7482b6000f04afdf0
:101000006168002900f0dd80012900f0fc800229e0
:10101000dff8d8a200f01f81ff27b946bb464ff08a
:10102000ff388af80080caf80480cdf80c80cdf82b
:101030000880a368a94ee26833702b68a8487260e4
:10104000019300f04ffc40f20143a64a4009a2fb85
:101050000020a5492a680140019d2069a1f5807101
:10106000696113601368002800f0988043f480736e
:1010700013606369002b00f08e80136843f40073e3
:10108000136041f6f97c009b4ff4406ec2f80ce00f
:1010900000254ff4006e58464ff0050bd5640299b9
:1010a0005365c2f80cb02b46c2f848c0c2f80ce039
:1010b000022201f06ff9484603992b46042201f001
:1010c00069f99af80000daf804100222012301f00d
:1010d00061f9384641462b46022201f05bf92b4666
:1010e00030787168042201f055f9a369002b57d1bb
:1010f0007e4805b0bde8f08f40f20f1306680093fc
:101100000446002e7ff473af794b724d794801216c
:101110002b6000f0bffc6368002b62d0012b00f055
:10112000a980022b00f0b780032b7cd01a1f012a64
:10113000dff8b8a18bbfff2701274ff0ff320e2247
:101140008cbf4ff0ff384ff00d088af80070caf8d6
:101150000420042b00f0a580052b00f0b2804ff096
:10116000ff0bd9464ff0ff320292053b18bf4ff0fc
:10117000ff3303935de740f20f23009332e740f221
:101180000f3300932ee740f20f4300932ae740f21b
:101190000f53009326e71368136072e7136068e744
:1011a000277f266a0125544c384631462b460422b7
:1011b0002771a660256001f0edf84c4805b0bde848
:1011c000f08fdff828a108234ff00209374603917a
:1011d00002968af80060caf80430cb464ff0070840
:1011e00027e7dff808a104231f468af80030994654
:1011f0009b460a230d2203930b23caf804204ff0c9
:101200000c08029315e7dff8e4a003231f46994674
:101210009b468af80030caf80430002302914ff050
:101220000208039305e7022739464ff00f080e2204
:10123000dff8b8a0022b8af80010caf8042038d0d2
:10124000032b86d10d234ff0040903930c23cb46c7
:1012500002270293ede6072305274ff003090393c6
:101260000623caf804608af80070cb464ff00008e5
:101270000293dee6dff874a004231f4699469b46de
:101280008af80030caf804300723039306234ff08e
:1012900005080293cde64ff009081f4619460822bb
:1012a000c6e707234ff0010903930823cb460293b7
:1012b000bfe61f460b2303930a23b946bb4602939e
:1012c000b7e64ff0020b0122d94602924de700bf6c
:1012d00000c4004028000020001204003402002056
:1012e00050000200c55a7c0a80ff7f002c020020bb
:1012f00000c00040000204003c020020f8b5224d6e
:1013000001462b6853b12b79ae68204a03ebc30327
:101310009b0001241a4404fa06f353601c4f041d79
:101320003a6813691e06fcd5d36901f8013ba14256
:10133000f7d10178437801f0070113eb01240fd1b5
:101340002b68114afbb11379916803ebc3039b002f
:1013500003f18043012203f5c0438a401a61f8bdbe
:101360000646204603f08afc3a687060011913694a
:101370001b06fcd5d36900f8013b8842f7d12b68e6
:10138000014a002bdfd1f8bd3c0200201060004074
:10139000280000202de9f04383b01a4b012693f872
:1013a00000e05b684feace0c0ceb0e05ad0005f1da
:1013b00080459e4005f5c0452e61d1b142f21074c2
:1013c000114b00eb010819684ff00009cdf80490ab
:1013d00010f8017b07e0019ba34203f10102019297
:1013e00004bf6e612e610b695b06f4d540454f6307
:1013f000ecd10ceb0e02054b920013445e6003b07f
:10140000bde8f08334020020280000201060004076
:1014100010b441f67132074b0124da639a68064929
:1014200022434ff000509a604c6088605df8044b96
:10143000704700bf00000c4000200c40f0b5154d77
:10144000ac6ae607fcd4144ef469134de407fbd4f0
:101450009408023c240144f06a44043adff840c096
:101460000e4f08441a444ff00056012144f0010485
:101470004ff4401e2861e960c6f804c03260b460d1
:10148000c7f800e01868034a1023a8619162eb6076
:10149000f0bd00bf00200c4000000c4000310c40ab
:1014a00018000c4010b400f58054a04214d203463a
:1014b0004ff0ff3253f8041ba34202ea0102f9d3b2
:1014c000013209d0064b01241a4602211861dc6062
:1014d000d960d369db07fcd45df8044b704700bfcb
:1014e00000000c40f0b43a4f3a4d0026012406f0bb
:1014f0000103002b0bbf002280224021c02116f0e7
:10150000020f18bf0a46b308d8074fea530348bf73
:1015100042f02002d8074fea530348bf42f01002be
:10152000d8074fea530348bf42f00802d8074feaf2
:10153000530348bf42f00402d80748bf42f00202fa
:101540005b0818bf42f0010212f0800f14bf294659
:10155000002191ea42614cbf2b46002393ea4101ee
:101560004cbf2b46002393ea41014cbf2b4600237e
:1015700093ea41014cbf2b46002393ea41014cbf43
:101580002b46002393ea41034cbf2946002191eaf0
:1015900043014cbf2a4600221f2382ea410100205a
:1015a00004fa03f211f0010f42ea000203f1ff33e3
:1015b00018bf1046b3f1ff3f4fea5101f0d1013699
:1015c000b6f5807f47f8040f91d1f0bc704700bf9b
:1015d00044020020b71dc10489b130b4094d014453
:1015e0004ff0ff3210f8013bd4b2634055f823307e
:1015f000884283ea1222f5d1d04330bc70470846b6
:10160000704700bf4802002000207047fee700bf7f
:101610000020704770b5164682b10d46002404e0e4
:101620000134a64205f8010b06d0fff709fa431c66
:10163000f6d11cb1204670bd304670bd4ff0ff3072
:1016400070bd00bf38b5124a0346106830b103447c
:10165000eff308818b4205d8136038bd0d49084669
:101660001160f4e70c4b0d4d1b68986803f0eaf924
:10167000284603f014fc002807dd2c46054414f826
:10168000010bfff7cbf9ac42f9d1012003f0c6f909
:10169000480600206407002098000020f051000058
:1016a00070b5161e07dd0c468d1914f8010bfff7f7
:1016b000b5f9ac42f9d1304670bd00bf024a034bc8
:1016c000d26a1a60704700bf00800c404c060020b0
:1016d00008b500f00f03013b062b65d8dfe803f0e7
:1016e0002539476464550400474bdb6a03f46033d3
:1016f000b3f5803f23d0b3f5003f6dd0b3f5004f75
:101700004ad0424b984262d0414b984209d13e4b5d
:101710009b6ac3f38103022b17d0032b62d0012bea
:1017200048d1bde8084000f0d7bf374bdb6a03f46f
:101730007053b3f5805f4fd0b3f5005f2cd1334bbe
:10174000984244d0324b9842e1d0bde8084000f0c6
:10175000cbbf2d4a936a03f00303022befd0032b78
:101760001ad0012b38d0936ada0315d4c9e7264a78
:10177000936a03f00c03082be1d00c2b0cd0042b44
:101780002ad0936adb0207d4bbe71f4b1b6813f018
:10179000805301d0002bb4d01c4b984217d01c4b67
:1017a0009842b4d0002008bd184b98420fd0184b77
:1017b0009842acd0154b98421dd0154b9842f1d1b0
:1017c000114b14209b6a33fa00f018d108bd0e4b60
:1017d0009b6a03f003039ee70c4b9842f7d00c4b37
:1017e000984294d000f096fe0a4b0b4a1b68126890
:1017f0000133d84008bd044b10209b6ae3e7bde8e5
:10180000084000f06dbf00bf00800c4002001800cf
:1018100003001a0078009043a000904300f00f00ee
:101820000138062852d8dfe800f01424355151461b
:1018300004002b4bdb6a03f46033b3f5803f49d0df
:10184000b3f5003f44d0b3f5004f0cbf0820012092
:101850007047234bdb6a03f47053b3f5805f37d0d6
:10186000b3f5005f36d0b3f5006f0cbf0420052040
:1018700070471b4b986a00f00300022829d0032808
:101880002ad0012824d09b6a13f4803f0cbf01208a
:1018900009207047124a936a03f00c03082b19d0f1
:1018a0000c2b19d0042b13d0936a13f4801f0cbf98
:1018b0000120092070470a4b1b6813f080530dd09c
:1018c000b3f1805f0cbf08200120704700207047f3
:1018d000032070470220704706207047072070479a
:1018e00000800c4008b500f47810b0f5901f00f0af
:1018f00093800ed9b0f5c01f66d056d9b0f5001f41
:1019000038d0b0f5201f76d0b0f5d01f3fd00020e2
:1019100008bdb0f5802f77d03ed9b0f5602f10d03c
:10192000b0f5801f5ed0b0f5402ff0d14b48fff7e7
:1019300075ff072805d00828e9d1bde8084000f068
:101940005bbe474b5b6903f4e063b3f5007f7bd07c
:101950006bd9b3f5c06f75d0b3f5e06f70d0b3f548
:10196000407fd4d13f4bdb6cb3f1985f2cbf3e4836
:101970003e4808bd3e48fff751ff03285cd00828c9
:10198000dbd00228c3d1bde8084000f0adbe394825
:10199000bde80840fff79cbe0028ced0b0f5003f60
:1019a000b5d1bde8084000f0b5bdb0f5a01f10d01e
:1019b000b0f5b01fabd12f48fff78afe284b1b6f45
:1019c000c3f30113d84008bd2b48bde80840fff71a
:1019d0007fbe2848fff77cfe214b1b6f03f00303fb
:1019e000d84008bd2448fff773fe1d4b9b6ec3f320
:1019f0000313d84008bd2048fff76afe184b9b6ec2
:101a000003f00303d84008bd00f0f6fd144b9b68bb
:101a100003f00f03d84008bd1748fff759fe104bdd
:101a20009b6ec3f30323d84008bdabb1b3f5807ff1
:101a30007ff46daf114808bdbde8084000f04cbe12
:101a40000f4808bd0f4808bd064bdb6cb3f1985f2b
:101a50002cbf0d480d4808bd0d4808bd06000c0000
:101a600000800c40b081e00f804f120040420f0018
:101a70000723200003001a0002001800c0d8a700a6
:101a8000406f4001003fab0140b56400c0cf6a0029
:101a9000809fd500f0b583b0c0f30323013b04461b
:101aa000092b0cd8dfe803f03537190b0b0d390b78
:101ab0000b05264dc4f304342c44a400216003b06c
:101ac000f0bd234d0120234ac4f30434536ddb07da
:101ad000f2d4136d1842fcd1eee71f480191fff7d5
:101ae00001ff1e4b0199db6cc3f307434a2b17d050
:101af000792b15d01a4a482b0cbf13460023984265
:101b0000184a194b94bf002001201060174d18602f
:101b1000d0e7174dcee7174dcce7174d1020d2e791
:101b2000164e174a3369b569f66903f03f07c6f3e5
:101b3000031343ea072305f0f005094e2b43b3f5e1
:101b4000017f2cbf13463346d9e700bfc003e41022
:101b5000c002e41000800c4000430200b081e00f9e
:101b60000048e80178009043a00090430002e41090
:101b70004000e4102002e4100003e410d0ff0fe066
:101b800000366e0138b500f00f04631e062b6ed8c8
:101b9000dfe803f0987f7f6d6d7a7200ad4a032411
:101ba0004021ad4b19621368002bfcd0fff786fd76
:101bb00000f01efd41f67132a84bdd6bda635b6805
:101bc00003f00703042b06d8012202fa03f313f0f3
:101bd000130f40f06081a24b984240f2b88005227a
:101be0009e494b6823f0070313434b600db100235c
:101bf000cb63994b9b485c62fff774fe9a4bdb6c9e
:101c0000c3f307434a2b00f0aa80792b00f0a7808a
:101c1000934a482b0cbf134600239842934a944b97
:101c200094bf0020012010601860fff747fd00f00e
:101c300071fc41f67132894bdc6bda635b6803f04f
:101c40000703042b06d8012202fa03f313f0130f43
:101c500040f01c81824b984271d905227f494b6824
:101c600023f0070313434b600cb10023cb637f4a7f
:101c70007f4b12681b6838bd032937d0082900f054
:101c80008380022943d038bd072929d0082950d0a4
:101c900038bd01390829f6d801a353f821f000bf57
:101ca000a11e0000bd1e0000191f0000871c0000bf
:101cb000871c0000d91e0000871c0000871c000044
:101cc000331f000002390329ddd801a353f821f0a6
:101cd000ff1d00009d1b0000991d0000091e000053
:101ce0005d4a136823f080531360c0e75a4b4021cc
:101cf000584a19621368002bfcd0fff7dffc564be3
:101d000060211a465962d36a9903fcd5afe7524b5a
:101d10004ff48071574a19621368002bfcd0fff70b
:101d2000cdfc4d4b40211a465962d36ad803fcd5ed
:101d30009de7494a136843f08053136097e74e4b81
:101d40004e4a034493428cbf0222032286e74a4b49
:101d50004a4a034493428cbf0222032240e7484c84
:101d6000484a2369a169e46903f03f05c4f30313fa
:101d700043ea052301f0f001394c0b43b3f5017f31
:101d80002cbf1346234648e7334b20211a4659629d
:101d9000d36a1b04fcd56ae7334bdb6cc3f3074300
:101da0004a2b00f0fb80792b00f0f880482b00f0e4
:101db000f280002318462c4ad26cc2f307424a2a0a
:101dc00000f0d780792a00f0d480482a18bf012378
:101dd0002649274a0b60136000f076fc1e4a204b10
:101de0000224984213684ff0040196bf23f0600369
:101df00043f0600343f020031360234ad1e61d4af9
:101e000004244ff48071cce6174bdb6cc3f307431b
:101e10004a2b00f0ec80792b00f0e980482b00f091
:101e2000e38000231846104ad26cc2f307424a2ac4
:101e300000f0c880792a00f0c580482a18bf012325
:101e40000a490b4a01240b601360214602f2e44266
:101e5000a7e600bf9c05904300800c4000000c40aa
:101e60000048e80100430200b081e00f7800904391
:101e7000a0009043a4059043ffdb0bffff23f40079
:101e8000d0ff0fe000366e018c0590436c4b9842fa
:101e900067d90422e2e66a4b98425ad904229fe6a7
:101ea00000252b462946022c49d066498a6a22f42d
:101eb000801323f00c032b438b62d8e6614b4ff465
:101ec0008071614a19621368002bfcd0fff7f6fba2
:101ed000082500230221e6e700f01cfb5b4bdb6cce
:101ee000c3f307434a2b00f09680792b00f09380d0
:101ef000534a482b0cbf134600239842544d554b70
:101f0000554a94bf002001200121286018600c254b
:101f1000116000230321c6e74a4b40214f4a196252
:101f20001368002bfcd0fff7c9fb04250023012117
:101f3000b9e74ff480154ff480330021b3e74148ef
:101f40001943826a22f4803323f003030b43836234
:101f50008de6434b434a034493428cbf0022012247
:101f60003ee63f4b3f4a034493428cbf002201228e
:101f700074e63d490c698a69c96904f03f04c1f3fc
:101f8000031141ea042102f0f0020a43b2f5017f95
:101f900028bf03461ce7012318460ce7324a0120fc
:101fa00011699369d26901f03f01c2f3031242ea59
:101fb000012203f0f0031343b3f5017f2cbf00238c
:101fc0000123f8e628490c698a69c96904f03f04cd
:101fd000c1f3031141ea042102f0f0020a43b2f511
:101fe000017f28bf03462be7012318461be71e4a43
:101ff000012011699369d26901f03f01c2f3031214
:1020000042ea012203f0f0031343b3f5017f2cbf32
:102010000023012307e7144b144a1d699969db6902
:1020200005f03f05c3f3031343ea052301f0f00174
:10203000034d0b43b3f5017f2cbf13462b465ce7e2
:102040000048e80100800c40a4059043b081e00ff7
:1020500078009043a0009043100890439c05904363
:10206000ffdb0bffff23f400d0ff0fe000366e0113
:1020700010b404282ed8dfe800f023291b031f002a
:1020800016480223012469b1154b1c621ab95df888
:10209000044bfff713bb0368002bf8d10368002b38
:1020a000f9d0f4e70e4a5df8044b1362fff706bb64
:1020b0000c4808230424e6e70b4820231024e2e719
:1020c0000a484ff400734ff48074dce7084880231b
:1020d0004024d8e75df8044b704700bf8405904367
:1020e00000800c408c05904394059043a4059043d8
:1020f0009c0590430b4b01220b499a608b6813405f
:102100000bd010b44af6e854084800238c600260f3
:102110005df8044b03608b60704704490a600b60f4
:10212000704700bf00a00c4000600c4080048c434e
:102130003b4b5b6803f001029907104604d513f08e
:10214000810f08bf42f00200590704d513f0910f28
:1021500008bf40f00400190701d5002a5cd0d90659
:1021600003d5990708bf40f01000990604d54ef634
:10217000df71194000294cd0590604d54ef69f71e5
:102180001940002942d0190604d540f219711940ae
:10219000002938d0d90503d540f21961194079b327
:1021a000990503d540f21f41194031b3590503d5b4
:1021b00040f21f211940e9b1190500d5bab1d9047f
:1021c00000d58ab1990400d55ab1590400d52ab175
:1021d0001b0402d50ab940f40040704740f4804027
:1021e000f6e740f40050f0e740f48050eae740f4ae
:1021f0000060e4e740f48060dee740f40070d5e77b
:1022000040f48070cce740f08000c3e740f040002d
:10221000b9e740f02000afe740f008009fe700bfbb
:1022200000a00c400b4a5169136901f00f01c3f380
:10223000811343ea81038370136903f03f03437002
:102240009169d36901f0f002c3f3031313430370e0
:10225000704700bfd0ff0fe02de9f04791f80090e4
:10226000b9f1000f01d1022343604b784c7a8a7a8e
:10227000002b18bf4ff0400acb7a08bf4ff0000a7e
:10228000002c18bf4ff080080c7908bf4ff00008f1
:10229000002a18bf4ff0200c4a7908bf4ff0000cfd
:1022a000002b18bf4ff0100e0b7b08bf4ff0000e35
:1022b000002c14bf4ff400570027002aca7814bf1f
:1022c0004ff080560026002b8b780c7a4fea0242a2
:1022d00042ea03628b7942ea0402c97942ea832224
:1022e00042ea012343ea0a0343ea080848ea0c0cdd
:1022f0004cea0e0e4eea070714bf082500253e43a0
:102300003543002343620560b9f1000f01d001237a
:102310004360bde8f08700bf2de9f041d379157a1d
:10232000002b547a14bf4ff400184ff00008002d12
:10233000557814bf4ff4801c4ff0000c002c14781b
:1023400096794fea0565937a45ea8465947845ea7b
:102350000605d67814bf4ff0100e4ff0000e45ea78
:102360000444002b1379557944ea063444ea832265
:1023700042ea052343ea080343ea0c0c14bf04278e
:10238000002703314cea0e0e09014eea07074750b9
:10239000bde8f081f0b5c40052b1002b38d025184b
:1023a000ad0005f18045012605f5c0458e402e6142
:1023b0002518ad00072905f1804517d805f5c0455a
:1023c0006f684fea810e0f2606fa0ef627ea060717
:1023d00002fa0ef63e436e603ab9204403bb154b39
:1023e0008000012203448a405a60f0bd01f180461a
:1023f00005f5c045083eaf68b6004ff00f0e0efa67
:1024000006fe27ea0e0702fa06f63e43ae60e3e751
:102410002718084dbf0001263d448e406e60c7e777
:10242000800000f18040012300f5c0408b40036133
:10243000f0bd00bf10600040f8b5044640f6aa6742
:1024400041f2050641f6f9702d4a00239442e760f7
:102450000d4623606660a3606361e364a064636506
:102460004ad0284aa365944243d0274b9c4240d08f
:10247000ab7c1bb1236843f080432360eb7c1bb132
:102480002b7d43f01003a365298a6b7bea890b43fc
:10249000686813436360ae682f7b18b3202f26d083
:1024a0001cd9402f18d0602f13d1042306fb03f34f
:1024b000800000eb5300b0fbf3f32268043b22f0f2
:1024c000600222602168114a9b011a400f43276075
:1024d00062612b78e360f8bd0623e7e7002ff8d1af
:1024e0001023e3e70a48fff7fdf9202fd8d108238e
:1024f000dce70023e365bbe72365a365b8e700bf1e
:1025000000c0004000c4004000c80040c0ff1f00e1
:1025100040810400294ad36a03f47053b3f5805f05
:102520002ad0b3f5005f24d0b3f5006f11d0d36883
:1025300003f4e063b3f5007f3dd020d9b3f5806f9d
:1025400037d0b3f5a06f32d0b3f5407f24d000234d
:1025500001e01b4b1b68194a1a4910685268c0f306
:1025600082300130b3fbf0f002f00f03d840086076
:102570007047154b1b68eee74ff40043ebe76bb178
:10258000b3f5807fe3d1114b114ad86c114bb0f1f8
:10259000985f28bf1346dee70f4bdce70b4b0f4a73
:1025a000d86c0f4bb0f1985f28bf1346d3e70d4ba3
:1025b000d1e70d4bcfe70d4bcde700bf00800c40be
:1025c00030000020540600202c000020b081e00fd5
:1025d00040b56400c0cf6a00809fd500804f1200d4
:1025e00040420f00003fab01406f4001c0d8a70040
:1025f00000487047006cdc02274ad36a03f470532a
:10260000b3f5805f24d0b3f5005f1ed0b3f5006f43
:1026100011d0d36803f4e063b3f5007f39d01ad941
:10262000b3f5806f33d0b3f5a06f2ed0b3f5407ff4
:102630001fd0002001e0194b1868174b1b68c3f32b
:1026400082330133b0fbf3f07047154b1868f4e7a1
:102650004ff40040f1e773b1b3f5807fe9d1114a3f
:10266000114bd06c114ab0f1985f2cbf1846104640
:10267000e3e70f48e1e70b4a0e4bd06c0e4ab0f18e
:10268000985f2cbf18461046d7e70c48d5e70c4892
:10269000d3e70c48d1e700bf00800c403000002099
:1026a0002c000020b081e00f40b56400c0cf6a006c
:1026b000809fd500804f120040420f00003fab01c9
:1026c000406f4001c0d8a700014b1868704700bf99
:1026d00030000020704700bf4ff40040704700bf3b
:1026e0004ff47a70704700bf014b1868704700bf05
:1026f0002c000020fee700bf08b5fff7ebff0a4af9
:102700000a4b9a420dd2d043094918440b4620f097
:1027100003000430084453f8041b834242f8041bae
:10272000f9d1fdf709fd00bf00000020a400002042
:1027300080520000024b1b6893f82000704700bfd6
:10274000340000202de9f04f85b080461120fff7be
:1027500065f8042803d011200421fff713fa0020a4
:1027600002460121fff784fc02f0c4f89c4b0021d3
:102770001868e02202f09dfa994b07251a6898e83c
:102780000a001c460393d8f80830101d10609462ac
:10279000d362516298f80c1000239177d8f8144056
:1027a00082f8363082f8373082f8383082f83930a3
:1027b000d8f80010012082f82050146382f82130ec
:1027c00082f82230537782f83430d363a2f8420083
:1027d000c9792029a2f8401000f0da80402908bf0a
:1027e000c2f8dc3040f0b680d8f810000023890829
:1027f00011655364936482f8543093650078039da7
:1028000000fb01f10e46b5f802e001913146ae44fd
:10281000014475450091284680f09c802978002964
:1028200000f09880994602931c461d464ff0010c1b
:10283000034609e0042800f092800b449e4557d9d6
:102840001978002900f0868058780528f2d10134e3
:102850009f7804eb840102ebc10101f1300001f12a
:102860003806ff090771756093f802b080f807b069
:102870000bf00f074ff0010b87710bfa07f7778109
:10288000df7807f003070772b3f804b0a6f808b0c2
:102890004d648d6481f854508d65d8f810703f5d9b
:1028a000002f57d090f804a0baf1000f5ed080f846
:1028b00009c03789d8f81060033716f804a0be1095
:1028c0000afb06f68079029f0e6501990cf1010c56
:1028d00002eb000a0137314406285ffa8cfc0297ac
:1028e00001918af8d44035d819780b449e45a7d871
:1028f000039b009d1979d37f193599422ad1032c66
:1029000028d1029b062b25d8b9f1060f22d872b622
:10291000344e354c336835485a1c18bf0133344a9d
:1029200018bf3360136c082143f00c031364fff7e6
:1029300029f9a368019923f001032846a36001f057
:102940004ffa014638b33368264a1bb1013b136086
:1029500003b962b66ff0030005b0bde8f08fd07f19
:1029600099788142f6d10131d177bde736898079f6
:102970000336b61006fb07770f6500991618394421
:102980000628009109f1010986f8d740acd9e1e7a2
:10299000c2f8dc0028e74ff4c053a061a361a3682c
:1029a000144a43f00103a3600d4b20201b68c2f8ba
:1029b000800110601a6b93f82000526883f822009f
:1029c00083f820100ab100b190473368054a2bb153
:1029d000013b136013b962b61846bde70020bbe7a0
:1029e0003400002050060020000010400723200083
:1029f00000800c4000e100e02de9f043694ec4b2d4
:102a000010f0800f04f00f00346804eb000514bfd1
:102a100095f8d45095f8d750002d78d108b904f125
:102a2000340572b6604f95f800c03868441c1cbf6e
:102a30000130386095f802e0bcf1000f13d05b4c18
:102a40004fea4e1858f8044014f4002f13d0c4f382
:102a5000405484b101383860002854d162b66ff018
:102a60000400bde8f083524c4fea4e1858f8044079
:102a700014f4002febd195f82080b8f1000f08d0a6
:102a800001383860002856d162b66ff00100bde809
:102a9000f08395f80290b9f1000f3fd1a9602a6147
:102aa000c5f8149085f8009002246b6285f82040e8
:102ab000bef1000f5cd0ae89002a44d0731e1344cf
:102ac0009b0906fb03f6db04394c4fea49194c44d9
:102ad0002269334302f0604213432361aa78344be6
:102ae00052011344ae615961aa78314952015358d9
:102af00023f03c4343f0044353500138386028bb73
:102b000062b6bde8f0836ff00400bde8f08305eb2a
:102b1000850504ebc50404f1340582e7346894f8b4
:102b20002040052c15d00138386040b962b66ff0ee
:102b30000800bde8f0836ff00100bde8f0836ff09e
:102b40000800bde8f0834ff40023bde70020bde896
:102b5000f083a9602a61c5f81480bcf1000fa3d0ee
:102b600001383860c8b962b66ff00300bde8f08381
:102b7000ab89104a346843f40023c2f81413d4f824
:102b8000dc10c2f81033d2f8003341f0044123f0d6
:102b90003c430b43c2f80033afe76ff00300bde8de
:102ba000f08300bf340000205006002000091040d0
:102bb000000b1040000810400146094b06291b6815
:102bc0001a6b93f82000526808bf83f8210083f83d
:102bd000220083f8201012b1884200d010477047bd
:102be000340000202de9f0436b4ec4b210f0800f8a
:102bf00004f00f00346804eb000514bf95f8d450be
:102c000095f8d750002d77d108b904f1340572b684
:102c1000624f95f800c03868441c1cbf0130386012
:102c200095f802e0bcf1000f13d05d4c4fea4e184e
:102c300058f8044014f4002f13d0c4f3405484b166
:102c400001383860002853d162b66ff00400bde847
:102c5000f083544c4fea4e1858f8044014f4002ff7
:102c6000ebd195f82080b8f1000f08d0013838601a
:102c7000002855d162b66ff00100bde8f08395f8e9
:102c80000290b9f1000f3ed10124a9602a61c5f874
:102c900014902c7001246b6285f82040bef1000f67
:102ca0005bd0002a44d0ab89013b13449b09db0471
:102cb0003b4e4fea49194e443469dff8e4e004f032
:102cc0000044224374461a433261ab785b019e4450
:102cd000cef81410aa785201135923f03c4343f064
:102ce000044313510138386028bb62b6bde8f08355
:102cf0006ff00400bde8f08305eb850504ebc50427
:102d000004f1340583e7346894f82040052c15d08d
:102d10000138386040b962b66ff00800bde8f08352
:102d20006ff00100bde8f0836ff00800bde8f083ac
:102d30004ff40023bce70020bde8f083a9602a61be
:102d4000c5f81480bcf1000fa4d101383860f0b987
:102d500062b66ff00300bde8f08302b96c70ab8916
:102d6000114c9a4228bf1a46336842f40022c4f834
:102d70001411d3f8dc10c4f81021d4f8003141f05c
:102d8000044223f03c431343c4f80031aae76ff038
:102d90000300bde8f08300bf34000020500600208f
:102da00000091040000b10400008104070b5036b84
:102db00004469b68056823b128469847c31c00d089
:102dc00070bd2b7813f0600f14d16b780b2b11d8da
:102dd000dfe813f08600a700100076011000b701ad
:102de000e8001000ce010d01de0113009388002bd6
:102df00000f029834ff0ff3070bd94f82030052b90
:102e0000f8d1a84b1b6893f85c20002a40f0098297
:102e100093f85e10a44d49014859b3f86a2006049e
:102e20004fea024400f11e82a04eb3f8682006402b
:102e3000324342f0c05293f8600042f4004242ea4a
:102e400080424a519a49ca692243ca6193f8842050
:102e5000002a40f0ca8193f88610934d49014859e1
:102e6000b3f8922006044fea024400f1f6818f4e37
:102e7000b3f890200640324342f0c05293f88800e5
:102e800042f4004242ea80424a518949ca692243d7
:102e9000ca6193f8ac2093f8ae00002a00f08d814f
:102ea000844d40014259b3f8ba10160400f18081f4
:102eb000814eb3f8b8401640344344f0c05493f800
:102ec000b06044f4004493f8b12044ea864444eaf4
:102ed00082524251764ad3690b43d361002070bdc0
:102ee0002268137803f01f03012b00f09f82022b4e
:102ef00000f06a82002b7ff47daf908800287ff479
:102f000079af94f82030043b012b3ff673af6b4c44
:102f10000125214625800346bde870400222fff7c7
:102f200061be2268d388002b7ff464af137803f06e
:102f30001f03022b7ff45eaf938813f0800fd9b28a
:102f4000584b01f00f011b6803eb010014bf90f810
:102f5000d40090f8d700002840f0948200297ff434
:102f600049af3433997800293ff444af50880028a2
:102f70007ff440af94f82020052a7ff43baf1b7804
:102f8000002b00f0fc824b4a49018b581c0340f196
:102f90000a8323f0705323f4001343f080538b50c3
:102fa00040b270bd2068037803f09f03802b7ff44c
:102fb00021af43881a0a022adbb200f05282032aa8
:102fc00000f04682012a7ff415af002b7ff412af88
:102fd000616a0b78002b3ff40dafbde87040c288ea
:102fe00000209a4228bf1a460346fff7fbbd94f81b
:102ff00020202368042a00f04481052a7ff4faaed9
:103000005a8822b1a16a497991427ff4f3ae2277be
:103010005b88002b7ff4f5ae0420fff7cdfd214b3c
:103020001b6893f87c1081b993f85c4093f85e209c
:10303000b3f86a00002c00f09d821e4c5201115121
:103040001b49ca6922ea0000c86193f8a41081b93b
:1030500093f8844093f88620b3f89200002c00f097
:103060007f82144c520111511149ca6922ea0000b1
:10307000c86193f8cc1081b993f8ac0093f8ae20f6
:10308000b3f8ba30002800f070820a48520111509b
:103090000749ca6922ea0303cb616ff0080001f017
:1030a00023fb1be734000020000b104000f8d3c3c3
:1030b000000810400009104000f813c03807002035
:1030c0002268d388002b7ff495ae137803f01f039a
:1030d000022b7ff48fae918811f0800fcbb2b349f1
:1030e00003f00f03096801eb030014bf90f8d4004c
:1030f00090f8d700002840f0ba81002b7ff47aae18
:1031000034318b78002b3ff475ae5288002a7ff45f
:1031100071ae94f82020052a7ff46cae0a78002a5c
:1031200000f03b82a2485b011a5832f0705201d580
:1031300042f0804242f400121a50002081f8200030
:1031400070bd94f820302468032b00f02581042bf7
:103150007ff450ae6388002b00f08f819549dab27e
:103160000b68002023f4fe6343ea02130b6070bd7a
:1031700094f82030042b10d0052b7ff43bae0020b8
:1031800004f11c010346bde870400122fff72abd8f
:1031900094f82030052b7ff42dae874c0025257048
:1031a000214628462b46bde870400122fff71abd94
:1031b00022f0705242f080528be6804d400142591d
:1031c000b3f8ba1014044fea0141f1d47c4eb3f8bd
:1031d000b840164046ea040242f0c05493f8b020ca
:1031e00044f4004444ea824273e693f88620704e29
:1031f00052019559b3f89240290438d47148b3f874
:1032000090102840084340f0c05093f8885040f494
:10321000004093f8891040ea854040ea815191517d
:1032200033e693f85e20624e52019559b3f86a4036
:10323000290421d46348b3f868102840084340f0bb
:10324000c05093f8605040f4004093f8611040ea99
:10325000854040ea81519151f4e520f0705242f0ee
:10326000805211e620f0705242f08052e9e525f0dc
:10327000705141f08051d2e725f0705141f08051fa
:10328000e9e75a88a16a1ab1487990427ff4b2ad51
:1032900022775a884b799a427ff420ae434b002123
:1032a0001b6893f85c2083f87c1093f85e40002a3a
:1032b00040f02081414e6401a159b3f86a200d0409
:1032c0004fea024000f111813d4db3f868200d40f6
:1032d0002a4342f0c05293f8601042f4004242ea9e
:1032e00081423449a251ca6900240243ca6193f859
:1032f000842083f8a44093f88640002a00f0de8002
:103300002b4e6401a159b3f892000a0400f1d18058
:103310002c4db3f890200d402a4342f0c05293f850
:10332000885042f4004293f8891042ea854242ea0a
:1033300081522049a251ca6900240243ca6193f80c
:10334000ac2083f8cc4093f8ae40002a00f0f08027
:10335000174e6401a259b3f8ba10150400f1e380c6
:10336000184db3f8b800154045ea000242f0c052cb
:1033700093f8b00042f4004293f8b13042ea804240
:1033800042ea83530b4aa351d36905201943d16103
:10339000fff712fc002070bd6388002b3ff4deae07
:1033a0000420fff709fc6388d8e600bf3400002042
:1033b000000910400008104038070020000b1040a2
:1033c00000f8d3c300f813c0938813f0800fdab26b
:1033d000764b02f00f021b6803eb020114bf91f859
:1033e000d41091f8d710002959d1002a7ff402adea
:1033f000343394f82020042a57d0052a7ff4faacfd
:103400009a781b78002b43d0694b5201d3581e0386
:103410007ff5f0acbde87040664ac3f3405300202e
:103420001380644903460222fff7dcbb94f8203086
:10343000042b3ff4dbac052b7ff4dcac9288e37ffc
:103440009a42bff4d7ac5b4c00252146284661e583
:10345000a27f9342bff6ceace26a52f823100b78fb
:10346000b8e5002b7ff4c6aca16a4b88b2e500eb4f
:10347000800001ebc001343143e60320fff79cfbe1
:1034800063886be600eb800003ebc003343369e52f
:10349000494b5201d3581d037ff5acacbae701eba1
:1034a000810103ebc1033433a3e79a78002aa8d043
:1034b000a0e421f0705242f080523ae73e4e64019f
:1034c000a159b3f892200d044fea0240f1d43b4dcc
:1034d000b3f890200d402a4342f0c05293f8881070
:1034e00042f4004242ea814223e721f0705242f066
:1034f0008052f6e62e4e6401a159b3f86a000a0420
:10350000f3d42f4db3f868200d402a4342f0c05247
:1035100093f8605042f4004293f8611042ea854209
:1035200042ea8152dde622f0705343f0805329e7ee
:10353000214e6401a259b3f8ba1010044fea0141b8
:10354000f1d41e4db3f8b800154045ea000242f030
:10355000c05293f8b03042f4004242ea834311e78c
:1035600015495201000454507ee5134952011b04d1
:1035700050508de5104952010004545060e50e484a
:1035800049010a5816030ed522f0705222f4001297
:1035900042f080520a50184602e507485b011a586b
:1035a00022f07052c6e5ff20fae400bf340000208c
:1035b0000009104038070020000b104000f8d3c36a
:1035c00000f813c070b590f854300446042b09d8a5
:1035d000dfe803f0806429090900a26d022b2a604c
:1035e00040f08a8070bda94b1b7873b1a849031db8
:1035f000c1f81433d1f80033d0f8dc0023f03c429a
:1036000040f000431343c1f80033a24b1b6823b1c1
:10361000a14a0020116802469847002384f85430dc
:1036200084f8343070bd456c002d40f0ab80994e6d
:103630003368002b74d02846a16c2a469847356021
:1036400000286dd094f8362094495201535894487c
:1036500033f0705348bf43f0804343f4001353509a
:1036600094f836208a4952011358002523f07053ec
:1036700043f40013261d84f834501350c1f814632a
:10368000d1f80033d4f8dc0023f03c4240f0004392
:103690001343c1f8003384f8545070bd406c0028c7
:1036a00040f0898094f83530012b00f0e08013b9a8
:1036b000794ba26c1a60002001460246034684f84a
:1036c0005400fff799f9714a01210423117084f81d
:1036d000543070bd00236d4a6e4d436480f8353020
:1036e00013702b60fff762fb013073d094f85430f5
:1036f0005a1e012a7ff671af636c63b32268d288c9
:103700009342bff46fafb4f84010b3fbf1f201fb8a
:103710001233002b7ff466af012384f8353070bd7f
:103720005b49231dc1f81433d1f80033d4f8dc0011
:1037300023f03c4240f0004313430020c1f8003323
:1037400084f85400034601460246fff74bfa032370
:1037500084f8543070bd4e48221dc0f81423d0f8b0
:103760000023d4f8dc5022f03c4145f000420a43eb
:10377000c0f8002394f83500474a136000287ff40e
:103780004cafdfe790f83420b0f84030002a61d128
:1037900044493f4a096843f40025d1f8dc10c2f8d7
:1037a0001053d2f8003341f0044123f03c430b4363
:1037b000c2f8003370bd94f83420b4f840309abb9e
:1037c0003849334a096843f40020d1f8dc10c2f8c4
:1037d0001003e6e794f83620304952015358304838
:1037e00033f0705348bf43f0804343f40013535009
:1037f00094f83620264952011358002623f07053be
:1038000043f40013251d84f834601350c1f8145399
:10381000d4f8dc20d1f8003342f0004223f03c43de
:103820001343c1f8003370bd984228bf18461d4ba2
:10383000174a1b6840f40020d3f8dc10c2f81001ce
:10384000d2f8003141f0044123f03c430b43c2f86d
:10385000003170bd9d4228bf1d46124b0c4a1b68ab
:1038600045f40025d3f8dc10c2f81051e8e7a66c47
:10387000094d034684f85400014602462e60fff7c6
:10388000b1f9022384f8353070bd00bf4407002031
:10389000000810403c0700204007002000091040ad
:1038a000000b104034000020194b10f0800f1b68f3
:1038b00000f00f0003eb000214bf92f8d42092f83e
:1038c000d72052b930b9343393f82020013a012a75
:1038d0000dd9704792f82030ffde02eb820203eb35
:1038e000c203343393f82020013a012af1d810b4ee
:1038f0005c6a002083f8200034b1586259691a6963
:1039000023465df8044b18475df8044be1e700bf20
:10391000340000202de9f04f83b072b6704e714a2a
:1039200033685d1c1cbf01333360916811b11168ad
:103930008c0329d46c4a6b48516994690c4006d1b8
:10394000013b336003b962b603b0bde8f08f2702d4
:1039500000f1b580002cc0f29481250500f1d280e1
:10396000a00400f1ea80e10400f11181620319d49e
:10397000210369d433685a4a002be5d0013b136018
:10398000002be1d162b6dfe79168c80702d50121bb
:1039900011615268534a91688907cbd502211161a0
:1039a0005268c7e7514a01279369d2693d4602ea46
:1039b000030a1ffa8afadff83c914ff000084c4adc
:1039c000dff838b12fe0002b40f06a8100f13401bc
:1039d00091f802e0474b4fea4e1e7344dbf800e0db
:1039e0009b680eea0303db0713d50123c9f80830ef
:1039f000b8f1000f00f0b581d9f810000b69c0f3e1
:103a000012001b1a08614b61c8780092fff74cff47
:103a1000009a6d00072fadb200f07a8108f101081d
:103a2000013709f1200915ea0a0ff2d0106808f0f1
:103a30000f03c11891f8d4100029c4d001eb810103
:103a400000ebc1013431c3e7284adff8ac80936949
:103a5000d269dff89ca002ea0309dff8a4b04feabc
:103a60001949002501241ae0002d40f0178100f1ca
:103a700034039978204a49010a449268dbf80070bf
:103a80001740fa0700f130813b0700f10b81013547
:103a90006400072da4b208f120083ff46baf14eacc
:103aa000090ff4d0daf80000431993f8d730002b4f
:103ab000dad003eb830300ebc3033433d9e74ff4cd
:103ac00000035361406824f4000410f0010018bfa3
:103ad0000320fff771f8002cbff63fafd1e000bf25
:103ae0005006002000400c4000001040000810402c
:103af0003400002000091040000b10401008104056
:103b000014081040a44b4ff400625a616ff0090092
:103b100000f0eafdfef70efe002800f01e81fef721
:103b200009fe0238c0b2032802d80620fff744f885
:103b300024f40064a0047ff516af984b98481d68e4
:103b4000984b2a6b984917694a68002f18bf184686
:103b500022f4f06242f48072d5f8dc704a60d1f849
:103b6000003347f0044723f03c438b4a3b4324f4a3
:103b70000054c1f8003300274ff0ff3ee10485f800
:103b800054709761c2f814e090617ff5efae8649fa
:103b900081484b68202523f4f06323f00103834a16
:103ba0004b60056113687c4913f02003fad180480b
:103bb000dff81482dff814c2dff814b2dff814a2c1
:103bc000dff81492dff814e27a4f7b4d4ff0ff32aa
:103bd000cbf80820a0f5d070caf80820c9f8082052
:103be000c8f80820ccf80820c0f8a821cef8082092
:103bf000ba604ff0011eaa6009270125cbf84822c0
:103c0000caf84822c9f84822c8f84822ccf8482205
:103c1000c0f81ce047610561604f05683f6825f406
:103c2000fe6505603d6bdff878e12d69dff8748192
:103c30004ff0c04c002d18bfc6463d1d87f83430ec
:103c4000c0f810c33d60c0f81453d0f80053d7f843
:103c5000dcc025f03c474cf004453d43c0f8005320
:103c60008b6103204a61c1f818e0fef7a5ff24f438
:103c700080546ff00a0000f037fd62037ff578aee4
:103c800090e6464b444a1b684ff00041516193f85f
:103c9000210024f00044fef78fff5ee69b78ffdef4
:103ca0008b78ffde454b1b6813f0400336d1444a46
:103cb000daf800001268c2f34172032a18bfc2f199
:103cc000020300ebc303043303603d4b3c491b6814
:103cd000021d43f0c0430b603a4b1a60082243f8c0
:103ce0000c2cfff76ffcd2e60122c8f80820997867
:103cf00011bbd3f810c09a89944519d95969c2eb00
:103d00000c0e0a445a61c3f810e0fff75bfcbbe6f7
:103d100024f4802421033ff597ae2be6274a402365
:103d20001360284bdaf800001b68083b0360cce7ff
:103d30005a698e466244e5e71e4a4fea411e7244c4
:103d400010699a691969c0f31200121a891a5a6126
:103d50001961d878fff7a8fd96e60220fef72cff40
:103d6000dde6d1f810e0b1f80cc0e6450ed9cceb99
:103d70000e0300934b6963444b61009b6d000b6124
:103d80000192adb2fff71efc019a47e64b69cdf8f0
:103d900000807344f0e700bf0000104034000020b2
:103da00000380c8008380c800008104010001040cb
:103db000a0091040000b1040200b1040080b1040d1
:103dc000100b1040140b1040600910408009104087
:103dd000000910402009104040091040c00910405f
:103de0002de9f84f06460d4637480121fdf752fef2
:103df0000520014604220023fef7ccfa334a344b57
:103e000003219161d3f80022324822f00102c3f865
:103e10000022d3f80012304a21f00c01c3f800123e
:103e2000036943f0010303611368d807fcd4012040
:103e300000f0f6fc28490b68264a002bfbdad36811
:103e4000264c23f0604343f08043d360236823b1c2
:103e5000013b2360002b00f08981322000f0a6fc9a
:103e600072b623681d4a591c1cbf013313603346c8
:103e70001b4a102e116838bf102341f00301116056
:103e80001168144c41f0040111601168c3f3090e6c
:103e900098b221f4c0531360a368dff84cc023f03c
:103ea0003e0343f02203dcf80020a360c4f824e0c2
:103eb000136d0c4f102b38bf10239bb24eea034eec
:103ec0000121c4f828e028e000d2040000400c40a2
:103ed000000c104000001040100010405006002060
:103ee00000081040040110403400002092f8d74030
:103ef000002c34d192f8d840002c49d192f8d94006
:103f0000002c5ed192f8da40002c73d10131c9b295
:103f1000072907f1040700f0898092f8d540002caa
:103f200040f00d8192f8d640002cdfd004eb8404e1
:103f300002ebc40494f839e08e45d7d1246d1844bf
:103f40002346102c38bf102380b29bb2c0f30a0462
:103f500044ea03443c6092f8d740002ccad004ebfa
:103f6000840402ebc40494f839e08e45c2d1246d78
:103f700018442346102c38bf102380b29bb2c0f3e4
:103f80000a0444ea03443c6092f8d840002cb5d0bf
:103f900004eb840402ebc40494f839e08e45add1ff
:103fa000246d18442346102c38bf102380b29bb2d6
:103fb000c0f30a0444ea03443c6092f8d940002c60
:103fc000a0d004eb840402ebc40494f839e08e45dd
:103fd00098d1246d18442346102c38bf102380b28a
:103fe0009bb2c0f30a0444ea03443c6092f8da400e
:103ff000002c8bd004eb840402ebc40494f839e069
:104000008e4583d1246d18442346102c38bf1023cd
:1040100080b201319bb2c0f30a04c9b244ea03443e
:1040200007293c6007f104077ff477af3544b5f505
:10403000007f00f2a280b0f5007f00f29e80504b1e
:104040004ff484624f491a610b684e4a9b06fbd4b9
:104050001146102313600b684b4a13f01003fad17a
:104060004a494b48dff83cb1dff83ca1dff83c910e
:10407000dff83c81dff83cc1dff83ce1454f464ebc
:10408000464d474c0b614b61cb614b634ff0ff31a9
:10409000cbf800302030cbf81030cbf80810caf83d
:1040a0000030caf81030caf80810c9f80030c9f852
:1040b0001030c9f80810c8f80030c8f81030c8f837
:1040c0000810ccf80030ccf81030ccf80810cef83e
:1040d0000030cef81030cef808103b603b61b9607c
:1040e00033603361b1602b602b61a9602360236171
:1040f000a16040f8203c40f8103c40f8181c0360d8
:1041000003618160cbf8a032cbf8b032cbf8a812b3
:10411000caf8a032caf8b032caf8a812116803204f
:1041200041f40031116010615061516811f00101da
:104130001ed10b460220d06058b2bde8f88f04ebc8
:10414000840402ebc40494f839e08e457ff4eaaeaf
:10415000246d18442346102c38bf102380b29bb224
:10416000c0f30a0444ea03443c60dbe662b674e64a
:104170000121d16058b2bde8f88ffc23dce700bf15
:10418000000010401000104000400c40000810409b
:10419000600b1040c0091040000b1040200b104075
:1041a000400b104000091040200910404009104009
:1041b0006009104080091040a00910402de9f0432b
:1041c000b44b1b6893f87c20002a00f0738193f8ad
:1041d0005c7093f85e10002f00f00382ae4a490134
:1041e0000a449168b3f86a7041f04201916093f813
:1041f000a4204ff0000e002a40f0638193f8cc20f9
:1042000082b193f8ac2093f8ae10002a00f0d1816f
:10421000a14a49010a449168b3f8ba0041f0420149
:10422000916007432fb39d490a6942f042020a6137
:10423000b3f86a20174209d093f85e1096484901f6
:104240000a5822f0705242f000620a50b3f89220ed
:10425000174209d093f886108f4849010a5822f076
:10426000705242f000620a50b3f8ba20174240f090
:10427000c281bef1000f27d0884989484a6822f4dc
:10428000f06242f480624a60826942f08002826198
:104290004a6822f4f06242f400724a6042691606eb
:1042a00008d443f69822143001e0013a02d00168a4
:1042b0000d06fad57a487949826922f08002826136
:1042c0004a6942f002024a61002f4ed03a4643f654
:1042d0009821744d4026b3f86a00024211d093f839
:1042e0005e406d4864012044d5f800c084680cea43
:1042f0000404640605d58660b3f86a0022ea000269
:1043000092b2b3f89200024211d093f8864062480c
:1043100064012044d5f800c084680cea04046406f3
:1043200005d58660b3f8920022ea000292b2b3f893
:10433000ba00024211d093f8ae40574864012044bd
:10434000d5f800c084680cea0404640606d58660cb
:10435000b3f8ba0022ea000292b20ab10139bad126
:104360004e490a6922f040020a6193f87c20002a33
:1043700040f07e8193f8a420002a40f0618193f8f8
:10438000cc20002a40f0448170463a4643f69821fa
:10439000dff81cc1434e022593f85c40002c40f02e
:1043a000e680b3f86a40044214d093f85e803e4c35
:1043b0004fea48184444d4f80890dcf8008009ea31
:1043c000080818f0020f05d0a560b3f86a4020ea8b
:1043d000040080b293f88440002c40f08380b3f84e
:1043e0009240044214d093f886802f4c4fea48182c
:1043f0004444d4f80890dcf8008009ea080818f072
:10440000020f05d0a560b3f8924020ea040080b204
:1044100093f8ac40002c40f08980b3f8ba400442d5
:1044200014d093f8ae80204c4fea48184444d4f896
:104430000890dcf8008009ea080818f0020f07d09d
:10444000a560b3f8ba4020ea040080b202b908b10e
:104450000139a1d167b1114911480b694ff4846446
:1044600023f00203114a0b61046113689b06fcd41c
:10447000bef1000f00f0ca80084a536923f002031e
:104480005361536823f4f06343f480635360bde8e1
:10449000f08300bf340000200009104000081040e5
:1044a0000000104010081040000b10401000104099
:1044b000140810409646174693f8a420002a3ff4ab
:1044c0009dae93f8842093f88610002a7dd0844a0c
:1044d00049010a449168b3f8920041f042019160a9
:1044e00007438be6b3f89240224291d093f886803e
:1044f0007b4c4fea48184444d6f80090d4f8088022
:1045000009ea080818f0020f82d0a560b3f89240bb
:1045100093f8848022ea040292b2b8f1000f3ff4cb
:1045200060af93f8ac40002c3ff477afb3f8ba40db
:1045300022428bd093f8ae80694c4fea481844442d
:10454000d6f80090d4f8088009ea080818f0020f9d
:104550003ff47eafa560b3f8ba4093f8ac8022ea8e
:10456000040292b2b8f1000f7ff470af57e7b3f8ce
:104570006a4022423ff42eaf93f85e80584c4fead7
:1045800048184444d6f80090d4f8088009ea08088e
:1045900018f0020f3ff41eafa560b3f86a4093f81d
:1045a0005c8022ea040292b2b8f1000f7ff412afed
:1045b000f9e64c4a49010a449168b3f8ba0041f05f
:1045c000020191604eea000e2ce6464a49010a4477
:1045d0009168b3f8920041f0020191604eea000e3a
:1045e0000ce6404a49010a449168b3f86ae041f098
:1045f0000201916060e793f8ae10394849010a580a
:1046000022f0705242f000620a5032e6bde8f083b8
:1046100093f8ac20002a42d193f8ae003149400112
:10462000425822f03c4242f00042425093f8ae0021
:104630004001425822f0f84242f090424250a3e634
:1046400093f88420002a40d193f886002549400140
:10465000425822f03c4242f00042425093f8860019
:104660004001425822f0f84242f09042425086e621
:1046700093f85c20f2b993f85e001a494001425861
:1046800022f03c4242f00042425093f85e0040016a
:10469000425822f0f84242f0904242506ae693f8c3
:1046a000ae100f4849010a5822f0f84242f09042f9
:1046b0000a5069e693f85e10094849010a5822f049
:1046c000f84242f090420a5054e693f886100448ab
:1046d00049010a5822f0f84242f090420a504ee650
:1046e00000091040000b10402de9f84f10f10b0f9e
:1046f000054601d0fff762fddff8a880254e264f62
:1047000001244ff000094fea840e0eeb0401d8f8a3
:104710000020c900531893f854005033b0b1d3f8b7
:1047200008c083f80490bcf1000f0fd0c3f80890c4
:10473000106a00f0ff10b04211d00eeb040302eb40
:10474000c302916c403252682846e0470134042c81
:10475000d9d1124b2022c3f88021bde8f88f303127
:10476000114491f806b0dff840a008794b8a4fea6f
:104770004b118a4450b90a494fea4b1b59441b0458
:104780000860396821ea03033b60d6e7caf8009065
:10479000f7e700bf040005001c08104000e100e03e
:1047a000000b1040340000200009104030b482b0eb
:1047b00044f62065184b1b6803fb00f0a84225d97e
:1047c00044f61f6415494a6a92b24b6a9bb2adf82f
:1047d0000430bdf804309b1a9bb2a342f5d9a0f572
:1047e0009c402038a842eed80c4b80b219465a6a39
:1047f00092b24b6a9bb2adf80630bdf806309b1af8
:104800009bb29842f5d802b030bc70470028ebd17b
:1048100002b030bc704700bf5407002000000140c8
:10482000f0b583b02d4b1c68a0fb044554ea05038a
:104830000ad12b4a2b49a2fb00030c68db08a3fb1f
:10484000044554ea050135d04ef660220023ab4200
:1048500008bfa2421dd24ef65f2c4ef66020224ebb
:10486000dff888e04ff0ff370021def8242092b215
:10487000def824309bb2adf80430bdf804309b1a4a
:104880009bb26345f4d9a4197d41a94208bfa04257
:10489000ebd3164ba4b219465a6a92b24b6a9bb23a
:1048a000adf80630bdf806309b1a9bb2a342f5d393
:1048b00003b0f0bd4ef66020a2fb03230c4adb08d8
:1048c00014680021a3fb0445a94208bfa042c2d33b
:1048d00054ea0503ddd103b0f0bd00bf4c07002052
:1048e000cdcccccc48070020a015ffff0000014034
:1048f000500700202de9f04389b0002401273c48ef
:104900008df810708df811408df812408df813401d
:104910008df814408df815408df816408df817402d
:104920008df818408df819408df81a408df81b400d
:104930008df81c408df804408df805408df8064038
:104940008df807408df808408df809408df80a4031
:104950008df80b408df80c408df80d408df80e4011
:10496000fcf7c0ff00f543422249dff898c000f58c
:10497000f426dff894e000f59c5550321e4b00f50c
:10498000fa70520906f590760835a1fb0515acfbc7
:1049900002c2a3fb0013aefb06e6dff870c0dff82f
:1049a00070e0dff87090dff870803946d2099b091b
:1049b000b60c6d0b02271148ccf80050cef8003031
:1049c000c9f80020c8f800608df80a70fdf762f899
:1049d0004ff6ff730a4d2146eb61284601aafdf709
:1049e0009bfc284604a9fdf737fc09b0bde8f0831d
:1049f000408104005917b7d1d34d62100052040012
:104a000000000140c55a7c0a83de1b43500700208a
:104a100054070020480700204c07002008b5074b2a
:104a2000044613b10021aff30080054b1868836a78
:104a300003b198472046fcf7e9fd00bf00000000e5
:104a400070520000124b70b51d6804461e4625b119
:104a5000ab6913b9284600f063f80e4b9c4201d1b4
:104a60006c6808e00c4b9c4201d1ac6803e00b4b36
:104a70009c4208bfec68b4f90c3013b1b4f90e00d5
:104a800070bd336809221a604ff0ff3070bd00bf5f
:104a9000980000200c5200002c5200004c520000e4
:104aa000014900f0a7b800bffd4f000010b5044653
:104ab000002303604360836081814366c281036198
:104ac0004361836119465c30082200f0f2f8054b1f
:104ad00024626362044ba362044be362044b2363ce
:104ae00010bd00bf194e00003b4e0000734e000089
:104af000974e000070b568234d1e5d430e4605f1cc
:104b0000740100f023f9044640b1002180e842001e
:104b10000c30a06005f1680200f0cbf8204670bdb3
:104b2000836910b5044633bb8364c3640365124bc9
:104b3000124a1b688262984204bf0123836100f01d
:104b40001ff86060204600f01bf8a060204600f0cf
:104b500017f80421e06000226068fff7a7ffa06853
:104b600009210122fff7a2ffe06812210222fff7cc
:104b70009dff0123a36110bd70520000a14a0000f7
:104b8000f8b51b4b07461e68b36913b93046fff7eb
:104b9000c7ff4836b4687368013b04d4b4f90c50bd
:104ba00075b16834f8e733682bb938460421fff74c
:104bb000a1ff306008b13668ece70c233b60f8bd1c
:104bc0004ff6ff73e3810123a38165662560a5602d
:104bd000656025616561a56104f15c0029460822d4
:104be00000f067f86563a563a564e5642046f8bd39
:104bf000705200002de9f8438046894600f14804d0
:104c0000002694b1a5686768013f0cd4ab89012bdd
:104c100007d9b5f90e30013303d040462946c847bd
:104c200006436835f0e72468ebe73046bde8f883d3
:104c30000e4b70b51e460e4c0025e41aa410a5427a
:104c400004d056f8253098470135f8e700f024faeb
:104c5000084b094c1e46e41aa4100025a54204d0b6
:104c600056f8253098470135f8e770bd9c000020c4
:104c70009c0000209c000020a0000020024b014668
:104c8000186800f063b800bf98000020024b01468e
:104c9000186800f017b800bf9800002010b5431e38
:104ca0000a44914204d011f8014b03f8014ff8e790
:104cb00010bd03460244934202d003f8011bfae7f9
:104cc0007047000030b500293cd051f8042c0b1f70
:104cd0001d49002ab8bf9b180a680c4612b95a60d1
:104ce0000b6030bd93420dd219685818904201bf35
:104cf0005a5852181a60426823605a6030bd99426f
:104d000003d80a4651680029f9d1146815199d4243
:104d10000ad11b682344d0188842136012d1086856
:104d2000034413604b680ce002d90c23036030bdd0
:104d30001c681819884201bf086849680019186082
:104d40005960536030bd00bf5c07002070b5cc1cbb
:104d500024f0030408340c2c38bf0c24002c064625
:104d600003da0c233360002070bd8c42f9d3204a53
:104d7000136810461946a1b10a68121b0ed40b2afb
:104d800003d90a608b188c501fe08b420bbf5a6806
:104d90004a6802605a6018bf0b4616e00b46496825
:104da000e9e7144d2b681bb9304600f025f8286060
:104db0003046214600f020f8421c0346d1d0c51ce5
:104dc00025f0030585420ad11c6003f10b001a1d72
:104dd00020f00700821a0ad05142995070bd304627
:104de000e91a00f009f80130bbd02b46ece770bda2
:104df0005c0700205807002038b5064c0023054604
:104e000008462360fcf71efc431c02d1236803b153
:104e10002b6038bd6007002010b50c46b1f90e10ac
:104e200000f028f90028abbf636da3891b1823f499
:104e30008053acbf6365a38110bd2de9f0411d46d1
:104e40008b890746db050c46164605d5b1f90e10d1
:104e50000022022300f0fcf8a389384623f4805393
:104e6000a381b4f90e1032462b46bde8f04100f0a4
:104e70001fb810b50c46b1f90e1000f0e9f8431c4c
:104e8000a38915bf606523f4805343f48053a38145
:104e900018bfa38110bdb1f90e1000f01bb8034676
:104ea00013f8012b002afbd1181a013870470000b3
:104eb00038b5074c054600202060084611461a46c2
:104ec000fcf7eefb431c02d1236803b12b6038bd15
:104ed0006007002038b5064c0023054608462360cd
:104ee000fcf792fb431c02d1236803b12b6038bd51
:104ef000600700208a892de9f041054610070c461d
:104f000057d44b68002b02dc0b6c002b18dde66ad3
:104f1000b6b102f48052002392b22f682b600ab11e
:104f2000626d10e0216a28460123b047411c024609
:104f300009d12b683bb11d2b01d0162b46d12f6018
:104f40000020bde8f081a3895b0705d56368d21a0c
:104f5000636b0bb1236cd21ae66a00232846216ae0
:104f6000b047461ca38905d12a681ab11d2a01d071
:104f7000162a19d1002262602269d904226004d560
:104f8000421c01d12b6803b96065616b2f60002959
:104f9000d6d004f14403994202d02846fff792fe8e
:104fa00000206063bde8f08143f04003a381bde8c9
:104fb000f0810f69002fc3d093070e680cbf4b69b7
:104fc0000023c7eb06080f608b6012e0a3894ff047
:104fd000ff3043f04003a381bde8f0812846216af9
:104fe0003a464346a66ab0470028efdd0744c0ebc7
:104ff0000808b8f1000ff1dca2e7000038b50b6932
:1050000005460c46dbb118b183690bb9fff788fd83
:105010000c4b9c4201d16c6808e00b4b9c4201d1c7
:10502000ac6803e0094b9c4208bfec68b4f90c3053
:105030002bb128462146bde83840fff75bbf002072
:1050400038bd00bf0c5200002c5200004c52000032
:1050500038b5074c054600202060084611461a4620
:10506000fcf7d6fa431c02d1236803b12b6038bd8c
:105070006007002038b5074c054600202060084630
:1050800011461a46fcf7c6fa431c02d1236803b145
:105090002b6038bd60070020f8b500bff8bc08bc25
:1050a0009e467047f8b500bff8bc08bc9e467047e6
:1050b000000000000000000000c20100010000002c
:1050c000000000000000000004030904090243007e
:1050d000020100c0320904000001020200000524a0
:1050e0000020010524010001042402020524060019
:1050f00001070582034000ff09040100020a0000c5
:105100000007058102400000070501024000000081
:105110003403530069006c00690063006f006e0087
:1051200020004c00610062006f007200610074009a
:105130006f007200690065007300200049006e0076
:1051400063002e000000000084510000cc500000dd
:1051500064510000030000000000002070510000b6
:1051600000000000c85000001051000098510000dd
:1051700000000000450a0000590a0000000000007d
:10518000000000001201000202000040c4100300f1
:1051900000000102000100004203450046004d00ee
:1051a000330032002000550053004200200043002d
:1051b0004400430020007300650072006900610034
:1051c0006c00200070006f0072007400200064000a
:1051d00065007600690063006500000000010000c2
:1051e00000020000000300000004000000050000b1
:1051f0004865617020616e6420737461636b206325
:105200006f6c6c6973696f6e0a000000000000002b
:10521000000000000000000000000000000000008e
:10522000000000000000000000000000000000007e
:10523000000000000000000000000000000000006e
:10524000000000000000000000000000000000005e
:10525000000000000000000000000000000000004e
:1052600000000000000000000000000043000000fb
:105270003800002000000000c0aeff7f01000000e9
:105280000101020200c20100000008000500000048
:105290000000000000c20100000500000010000036
:1052a0000000000000c0004000c40040008000007a
:1052b000006cdc0258060020000000000c520000c8
:1052c0002c5200004c5200000000000000000000c2
:1052d00000000000000000006c5200000000000010
:1052e00000000000000000000000000000000000be
:1052f00000000000000000000000000000000000ae
:10530000000000000000000000000000000000009d
:105310000000000000000000380000200101000033
:04532000dd000000ac
:10800000d4ff01208dc6050089c60500b5750200a4
:1080100089c60500117702001977020089c605009c
:1080200089c6050089c6050089c6050089c6050000
:1080300089c6050089c6050089c60500317502009c
:1080400051a105007559050089c6050089c60500be
:1080500089c60500c98b050089c6050089c60500cb
:1080600089c6050089c6050089c60500bd590500f9
:1080700089c6050089c6050089c6050089c60500b0
:1080800089c6050089c6050089c6050089c60500a0
:1080900089c6050089c6050089c6050089c6050090
:1080a00089c6050089c6050089c6050089c6050080
:1080b00089c6050089c60500416a0500c57602002b
:1080c00089c6050089c6050089c6050089c6050060
:1080d00089c6050089c6050089c6050010b5054c8e
:1080e000237833b9044b13b10448aff30080012364
:1080f000237010bd000c002000000000549d0800fb
:10810000084b10b51bb108480849aff30080084878
:10811000036803b910bd074b002bfbd0bde810402e
:10812000184700bf00000000549d0800040c002008
:10813000dc0b002000000000154b002b08bf134b88
:108140009d46a3f5803a00218b460f461348144afa
:10815000121a5ef011fa0f4b002b00d098470e4b0d
:10816000002b00d098470020002104000d000d488e
:10817000002802d00c48aff300805ef04df82000dc
:10818000290000f013f85df07dfe00bf000008003c
:10819000d4ff01200000000000000000000c0020bf
:1081a0005cc90020000000000000000038b51ef08f
:1081b000f7ff1b485ff032f822f074ff29f042fd10
:1081c0001ef094ff174800f06dfe174c154811f093
:1081d00077f854f0a7fb1ef08ffe144825465ff099
:1081e0001df81ef0cfff1ef05dff11f0d5f81ef058
:1081f00095ff00f0a5fe2368032b0dd0013323600b
:1082000054f0b6fc29f09cfe0028ead02b68012b24
:10821000e7d11ef085ffe4e739f03afe0123eee7ef
:10822000888f06003c9300201c0c0020988f0600cd
:1082300080b483b000af7860002318460c37bd4689
:108240005df8047b704700bf80b483b000af7860f6
:10825000fee700bf80b483b000af786039603b6850
:108260004ff400525a60002318460c37bd465df8a3
:10827000047b704780b400af01231846bd465df80b
:10828000047b704780b483b000af78600123184648
:108290000c37bd465df8047b704700bf80b483b0e7
:1082a00000af786039604ff0ff3318460c37bd4699
:1082b0005df8047b704700bf80b485b000aff86004
:1082c000b9607a60002318461437bd465df8047b18
:1082d000704700bf80b586b000aff860b9607a60c3
:1082e00000237b6111e01ff063f938613b69b3f152
:1082f000ff3f09d0bb685a1cba603a69d2b21a7003
:108300007b6901337b6100e004e07b685a1e7a6080
:10831000002be8d17b69002b02dc4ff0ff3300e03b
:108320007b6918461837bd4680bd00bf90b585b043
:1083300000af7860184b1b68002b02d1164b174a10
:108340001a60154b1b68fb60134b1a687b6813445b
:10835000eff3088214462246934212d9104b1b6851
:108360009b6818465df050fe04460e485ff087faa1
:10837000034620460b491a4600f016f801205df02e
:1083800081fd054b1a687b681344034a1360fb6840
:1083900018461437bd4690bd200c00205cc9002053
:1083a0001c050020b48f060080b485b000aff860d3
:1083b000b9607a607b6818461437bd465df8047b67
:1083c000704700bf024840f61a1129f09dbc00bf5b
:1083d000340c0020024840f61b1129f095bc00bf68
:1083e000340c002010b5044601205ef07ff850b137
:1083f00004700246bde8104003484ff4126141f298
:10840000883329f0adbc10bd340c002010b50446f3
:1084100001205ef06bf848b104700246bde81040e0
:10842000034840f61211012329f09abc10bd00bf89
:10843000340c002008b5062201305ef067f80030e9
:1084400018bf012008bd00bf08b5062201305ef04c
:108450005df8003018bf012008bd00bf70b50546ab
:108460000c4669b901205ef041f8c0b105700246c2
:10847000bde870400a4840f61311012329f070bc92
:1084800004205ef033f850b1057044800246bde828
:108490007040034840f61411012329f061bc70bdff
:1084a000340c002028b14ff4fa7303fb00f0054ba5
:1084b000186029b14ff47a7303fb01f1014b596045
:1084c000002070470800002070b5194d0e46eb687b
:1084d0000446994288bfdeb22b68984288bfdcb25e
:1084e0004ef01efca0420fdb01dd032c1ad94ef02a
:1084f00017fc6b680e4a98422b6918bf50600c4af3
:10850000b34218bf166170bd03204ef0f3fb02208a
:108510004ef0f0fb01204ef0edfb601cc0b24ef0bf
:10852000d5fbe4e7601cc0b24ef0d0fbdfe700bf34
:1085300010000020014b00225a61704710000020fb
:10854000f8b5384b93f81831022b39d0364c064623
:1085500021696369994225d0c9b200200af0e0ff81
:108560006268a16823698a4263614ff001002e4b63
:108570001ed09d692d4f9a6001205df0b7ff38b184
:108580000570024640f60b11294829f02bfca5691d
:108590003d602368244a23b15368022b1dd0012b70
:1085a0003ad0f8bd6268a16800208a421e4be0d133
:1085b0001e4f9d693b689d42ded10028e9d0dbe774
:1085c000194c226963699a4202d0002323616361d6
:1085d000184a002313606360f8bd174d2b6843b140
:1085e0001649013b2b600a6922f004020a6130bf80
:1085f000b3b9e369206a9e4228bf1e46b04238bf25
:1086000030461ef0ffff4ef01bfb1ff025f863689d
:10861000626a012b2a60c4d1bde8f8404ef010bb5d
:10862000f8bd00bf400c002010000020280c0020e6
:10863000340c00205c0d00200400002000ed00e060
:10864000054b10b44ff4fa649c62d96118625a6207
:108650005df8044b704700bf10000020024a034b36
:10866000926a1a60704700bf1000002004000020ca
:10867000f8b51a4ce6682368003618bf0126032bac
:108680008dbf0425dfb21d462f46a0614ef048fb8a
:10869000a8420fdb01dd042f1ad14ef041fb6368c5
:1086a0000e4a9842236918bf50600c4ab34218bf63
:1086b0001661f8bd03204ef01dfb02204ef01afba0
:1086c00001204ef017fb781cc0b24ef0fffae4e731
:1086d000781cc0b24ef0fafadfe700bf10000020ad
:1086e000014b1860704700bf1000002070b5554e58
:1086f00084b096f8e85086f8e700a8424fd0012de4
:10870000514c02d105e09d4203d054f8083f002ba4
:10871000f9dc4e4840f6021129f0f6fa6368ebb92d
:1087200096f8e720474b082a41d00fd9202a46d097
:108730001bd9402a46d0802a0ed1022d0cd1002010
:10874000014604b0bde870400af03ebf022a16d0d0
:10875000042a55d0012a45d004b070bd40f602115c
:1087600000223a4829f0fcfadae7102af4d10f2d5a
:10877000f2d8002004b0bde870400af045bf022dd9
:108780004cd9102d50d0402d3dd0802d1cd093f8c9
:108790002710002004b0bde870400af0f1be40f69a
:1087a00002112a4804b0bde8704029f0adba072d87
:1087b000d2d8002004b0bde870400af0f1be1f2df1
